:020000040000FA
:040000001DEF00F000
:060008005C8278ED11F0AE
:100018005C80E0CF01F0F29E9EA815EF00F017EF8C
:1000280000F018EF00F09E98F28E01C0E0FF5C909F
:06003800100069EF10F05A
:0508000000256400006A
:100806000550800B0E6E05500524106E04AE0EEFDB
:1008160004F010EF04F011EF04F010801050D8B47B
:1008260017EF04F019EF04F02EEF04F01028D8A407
:100836001FEF04F021EF04F029EF04F0000E026E22
:10084600000E036E000E046E000E056E048E000E82
:10085600056E36EF04F0000E026E000E036E000EFB
:10086600046E000E056E0950800B0F6E0E500F18A9
:10087600D8B440EF04F042EF04F043EF04F00E8CDE
:10088600095009240F6E08AE4BEF04F04DEF04F04B
:100896004EEF04F00F800F50D8B454EF04F056EF2B
:1008A60004F06BEF04F00F28D8A45CEF04F05EEFC1
:1008B60004F066EF04F0000E066E000E076E000EE2
:1008C600086E000E096E088E000E096E73EF04F0B6
:1008D600000E066E000E076E000E086E000E096E04
:1008E60010500F5CD8B07AEF04F07CEF04F0A3EF61
:1008F60004F00EAC81EF04F083EF04F085EF04F012
:10090600800E0E1A10C011F00FC010F011C00FF0BB
:1009160002C011F006C002F011C006F003C011F0CB
:1009260007C003F011C007F004C011F008C004F0BE
:1009360011C008F005C011F009C005F011C009F09A
:10094600000E116E10500FC00AF00B6A0A5E000E00
:100956000B5A0BBEB8EF04F00B5009E11A0E0A5CF5
:10096600D8A0B8EF04F0BAEF04F0F1EF04F00250AB
:10097600031004100510D8A4C3EF04F0C6EF04F06A
:10098600010EC7EF04F0000E116E000E026E000E8F
:10099600036E000E046E000E056E0FC010F0FAEF27
:1009A60004F011A0D9EF04F0DBEF04F0E1EF04F05E
:1009B600D89011300109116EE3EF04F0D89011328E
:1009C60002A0E8EF04F0EAEF04F0EBEF04F0118E7A
:1009D60005340532043203320232102A0F50105CFD
:1009E600D8A0F8EF04F0FAEF04F0D4EF04F00EBC50
:1009F600FFEF04F001EF05F041EF05F01050D8A429
:100A060007EF05F009EF05F013EF05F0000E026E93
:100A1600000E036E000E046E000E056E62EF06F009
:100A260006500226075003220850042209500522C8
:100A360005A020EF05F022EF05F0CEEF05F011A09E
:100A460027EF05F029EF05F02FEF05F0D8901130CC
:100A56000109116E31EF05F0D890113202A036EF80
:100A660005F038EF05F039EF05F0118E0534053243
:100A7600043203320232102ACEEF05F00650025C31
:100A860007500358085004580550800A0A6E09504A
:100A9600800A0A58D8B052EF05F054EF05F07FEF00
:100AA60005F00250065C0A6E035007580B6E0450A0
:100AB60008580C6E055009580D6EFF0E0A24026E7A
:100AC600FF0E0B20036EFF0E0C20046EFF0E0D2092
:100AD600056E800E0E1A116C1150D8A475EF05F034
:100AE60077EF05F087EF05F0010E0226000E0322D0
:100AF6000422052287EF05F00650025E0750035ACE
:100B06000850045A0950055A0250031004100510E3
:100B1600D8A490EF05F092EF05F0C7EF05F011505D
:100B2600D8A498EF05F09AEF05F0C7EF05F0000E90
:100B3600026E000E036E000E046E000E056E62EF6E
:100B460006F0D890023603360436053611AEAEEFFF
:100B560005F0B0EF05F0B1EF05F0028011A0B6EF99
:100B660005F0B8EF05F0BCEF05F0D8801136BEEF02
:100B760005F0D89011361050D8B4C4EF05F0C6EF82
:100B860005F0C7EF05F0100604AECCEF05F0CEEF8A
:100B960005F0A4EF05F0000E0F6E11AED5EF05F0CF
:100BA600D7EF05F0EFEF05F011C00AF07F0E0A1639
:100BB600D8B4E0EF05F0E2EF05F0E6EF05F0010E40
:100BC6000F6EEFEF05F002A0EBEF05F0EDEF05F08D
:100BD600EFEF05F0E2EF05F00F50D8B4F5EF05F0B2
:100BE600F7EF05F022EF06F0010E0226000E0322B3
:100BF6000422052205A002EF06F004EF06F022EF1C
:100C060006F002C00AF003C00BF004C00CF005C0E9
:100C16000DF00D340D320C320B320A320AC002F0DE
:100C26000BC003F00CC004F00DC005F01028D8B4BA
:100C36001FEF06F021EF06F022EF06F0102A10282B
:100C4600D8B428EF06F02AEF06F032EF06F010507F
:100C5600D8A430EF06F032EF06F044EF06F0000EAF
:100C6600026E000E036E000E046E000E056E10502E
:100C7600D8A440EF06F042EF06F044EF06F0000E6F
:100C86000E6E10A049EF06F04BEF06F04EEF06F0A1
:100C9600048E4FEF06F0049ED8901030056E0EAE0F
:100CA60057EF06F059EF06F05AEF06F0058E02C030
:100CB60002F003C003F004C004F005C005F0120002
:100CC6001350800B1C6E13501324226E12AE6EEF5F
:100CD60006F070EF06F071EF06F022802250D8B4CD
:100CE60077EF06F079EF06F08CEF06F02228D8A40D
:100CF6007FEF06F081EF06F089EF06F0000E106E2A
:100D0600000E116E000E126E000E136E128E94EF10
:100D160006F0000E106E000E116E000E126E000E22
:100D2600136E1750800B1C1A17501724216E16AE1F
:100D36009FEF06F0A1EF06F0A2EF06F0218021500A
:100D4600D8B4A8EF06F0AAEF06F0BDEF06F021280A
:100D5600D8A4B0EF06F0B2EF06F0BAEF06F0000E38
:100D6600146E000E156E000E166E000E176E168EA1
:100D7600C5EF06F0000E146E000E156E000E166E10
:100D8600000E176E2150D8B4CBEF06F0CDEF06F06B
:100D9600D5EF06F02250D8A4D3EF06F0D5EF06F033
:100DA600DFEF06F0000E106E000E116E000E126ED2
:100DB600000E136E77EF08F016501002F3CF27F0EF
:100DC600F4CF28F027501D6E1E6A1F6A206A28502D
:100DD600236E246A256A266A15501102F3CF27F07E
:100DE600F4CF28F027501D26000E1E221F22202297
:100DF60028502326000E24222522262214501202D1
:100E0600F3CF27F0F4CF28F027501D26000E1E2220
:100E16001F22202228502326000E242225222622A5
:100E26001FC020F01EC01FF01DC01EF01D6A14500A
:100E36001102F3CF27F0F4CF28F027501D262850B3
:100E46001E22000E1F22000E202215501002F3CF84
:100E560027F0F4CF28F027501D2628501E22000E1A
:100E66001F22000E20221FC020F01EC01FF01DC032
:100E76001EF01D6A14501002F3CF27F0F4CF28F0AD
:100E860027501D2628501E22000E1F22000E20224B
:100E960016501102F3CF27F0F4CF28F0275023265F
:100EA60028502422000E2522000E2622155012025A
:100EB600F3CF27F0F4CF28F02750232628502422FA
:100EC600000E2522000E262216501202F3CF27F01E
:100ED600F4CF28F02750186E2850196E1A6A1B6A2C
:100EE6001AC01BF019C01AF018C019F0186A185069
:100EF6002326195024221A5025221B5026221DC0B3
:100F060018F01EC019F01FC01AF020C01BF0190EF1
:100F160092EF07F0D8901B321A3219321832E82EA7
:100F26008DEF07F018502326195024221A50252237
:100F36001B5026221FC020F01EC01FF01DC01EF031
:100F46001D6A215022C018F0196A1826000E1922AF
:100F5600820E1824276EFF0E1920286EC8EF07F0A0
:100F6600D890233624362536263620AEBDEF07F038
:100F7600BFEF07F0C0EF07F02380D8901D361E366E
:100F86001F3620362706D8A0280625AECDEF07F057
:100F9600CFEF07F0B3EF07F0000E216E20AED6EFCD
:100FA60007F0D8EF07F0FCEF07F0FF0E1D14186EE0
:100FB600FF0E1E14196EFF0E1F141A6E7F0E2014DC
:100FC6001B6E185019101A101B10D8B4EDEF07F04D
:100FD600EFEF07F0F3EF07F0010E216EFCEF07F0DD
:100FE60023A0F8EF07F0FAEF07F0FCEF07F0EFEFBA
:100FF60007F02150D8B402EF08F004EF08F028EF0C
:1010060008F0010E2326000E24222522262226A0E1
:101016000FEF08F011EF08F028EF08F023C018F0E2
:1010260024C019F025C01AF026C01BF01B341B3251
:101036001A321932183218C023F019C024F01AC017
:1010460025F01BC026F0274A282A28BE33EF08F0D1
:10105600285008E12728D8A033EF08F035EF08F02C
:101066003FEF08F0000E236E000E246E800E256EF4
:101076007F0E266E6DEF08F028BE4CEF08F0285064
:1010860006E12704D8B04AEF08F04CEF08F058EF15
:1010960008F0000E236E000E246E000E256E000E64
:1010A600266E000E1C6E6DEF08F027C022F0FF0EB4
:1010B6002316FF0E24167F0E2516000E261622A0D6
:1010C60067EF08F069EF08F06AEF08F0258ED89010
:1010D6002230266E1C50261223C010F024C011F0B8
:1010E60025C012F026C013F012003450800B416E5A
:1010F60034503424486E33AE83EF08F085EF08F0A1
:1011060086EF08F048804850D8B48CEF08F08EEF90
:1011160008F0A3EF08F04828D8A494EF08F096EF5B
:1011260008F09EEF08F0000E316E000E326E000ED3
:10113600336E000E346E338E000E346EABEF08F055
:10114600000E316E000E326E000E336E000E346EDF
:101156003850800B411A38503824496E37AEB6EFF6
:1011660008F0B8EF08F0B9EF08F049804950D8B454
:10117600BFEF08F0C1EF08F0D6EF08F04928D8A471
:10118600C7EF08F0C9EF08F0D1EF08F0000E356E92
:10119600000E366E000E376E000E386E378E000E5D
:1011A600386EDEEF08F0000E356E000E366E000E5D
:1011B600376E000E386E3550361037103810D8A4FA
:1011C600E7EF08F0E9EF08F001EF09F0000E316EE5
:1011D600000E326E000E336E000E346E800E331229
:1011E6007F0E34124150341231C031F032C032F029
:1011F60033C033F034C034F044EF0AF04850D8A47A
:1012060007EF09F009EF09F013EF09F0000E316E50
:10121600000E326E000E336E000E346E44EF0AF08E
:10122600495048C039F03A6A395E000E3A5A7F0E84
:101236003924426E000E3A20436E31C03DF032C072
:101246003EF033C03FF034C040F0000E316E000E69
:10125600326E000E336E000E346E000E446E000EBB
:10126600456E000E466E000E476E000E496E74EF18
:1012760009F04950D8B442EF09F044EF09F05BEFAA
:1012860009F0D8903D363E363F364036D890313656
:1012960032363336343647AE53EF09F055EF09F0A0
:1012A60056EF09F03180D8904436453646364736F3
:1012B60035503D5C36503E5837503F5838504058B0
:1012C600D8A068EF09F06AEF09F073EF09F0478CD0
:1012D60035503D5E36503E5A37503F5A3850405A88
:1012E600492A190E49647AEF09F07CEF09F03CEFC0
:1012F60009F03D503E103F104010D8B485EF09F07C
:1013060087EF09F09FEF09F044809FEF09F0D8902E
:10131600313632363336343647AE94EF09F096EF2F
:1013260009F097EF09F03180D890443645364636B5
:1013360047364206D8A0430633AEA4EF09F0A6EF1F
:1013460009F08AEF09F0000E496E47AEADEF09F0DD
:10135600AFEF09F0D3EF09F0FF0E4414396EFF0E1C
:1013660045143A6EFF0E46143B6E7F0E47143C6ED4
:1013760039503A103B103C10D8B4C4EF09F0C6EF10
:1013860009F0CAEF09F0010E496ED3EF09F031A05A
:10139600CFEF09F0D1EF09F0D3EF09F0C6EF09F06E
:1013A6004950D8B4D9EF09F0DBEF09F0FFEF09F0A7
:1013B600010E3126000E32223322342234A0E6EF0B
:1013C60009F0E8EF09F0FFEF09F031C039F032C05B
:1013D6003AF033C03BF034C03CF03C343C323B3254
:1013E6003A32393239C031F03AC032F03BC033F0CC
:1013F6003CC034F0424A432A43BE0AEF0AF0435047
:1014060008E14228D8A00AEF0AF00CEF0AF017EF1D
:101416000AF0000E436E4268000E316E000E326E08
:10142600000E336E000E346E43BE24EF0AF04350B6
:1014360006E14204D8B022EF0AF024EF0AF032EFB8
:101446000AF0000E436E000E426E000E316E000E64
:10145600326E000E336E000E346E000E416E42C0C8
:1014660048F048A039EF0AF03BEF0AF03EEF0AF0E9
:10147600338E3FEF0AF0339ED8904830346EF5EF46
:1014860008F01200720ED36E45EC11F09280C198EE
:10149600C19AC150F00B0E09C16ED08EF28EF28C3D
:1014A600700ED312D350FC0B0209D36ED3A45EEF99
:1014B6000AF060EF0AF059EF0AF0000E036E330EE1
:1014C600026E000E056E000E046E000E076E010E13
:1014D600066E000E096E000E086E12EC11F0C08E3C
:1014E600C050C70B0809C06EC050F80B0409C06E87
:1014F600C280C30EC216000E00019D6F140E0001BD
:101506009D19D8A489EF0AF08BEF0AF095EF0BF03E
:1015160097C002F098C003F09DC004F0056ABDECC8
:101526000FF002C093F003C094F093C054F094C03F
:1015360055F0040E566ED89055325432562E9EEF04
:101546000AF054500001A26FB80E146E1E0E156EEE
:10155600990E166E400E176EC350026E036A046A29
:10156600056A010EA9EC0BF002C010F003C011F0E1
:1015760004C012F005C013F063EC06F010C031F0A1
:1015860011C032F012C033F013C034F0030E146EE3
:10159600770E156EA00E166E3B0E176EC350026EBA
:1015A600036A046A056A010EA9EC0BF002C010F08A
:1015B60003C011F004C012F005C013F063EC06F08E
:1015C60010C02DF011C02EF012C02FF013C030F055
:1015D600000E296E000E2A6EA00E2B6E400E2C6E8B
:1015E6008DEC10F029C035F02AC036F02BC037F04C
:1015F6002CC038F078EC08F031C099F032C09AF07F
:1016060033C09BF034C09CF0000E066E000E076ED1
:10161600800E086EBF0E096E000E356E000E366E19
:10162600C80E376E420E386E99C031F09AC032F04D
:101636009BC033F09CC034F078EC08F031C002F067
:1016460032C003F033C004F034C005F003EC04F0FC
:1016560002C08FF003C090F004C091F005C092F074
:101666008FC031F090C032F091C033F092C034F0A8
:10167600320E356E110E366E800E376E3B0E386E9C
:1016860078EC08F031C099F032C09AF033C09BF084
:1016960034C09CF099C002F09AC003F09BC004F0DD
:1016A6009CC005F0000E066E000E076EA00E086EBA
:1016B600C00E096E03EC04F002C099F003C09AF064
:1016C60004C09BF005C09CF099C002F09AC003F0DC
:1016D6009BC004F09CC005F0DEEC0DF002C095F056
:1016E60003C096F0800E406E000E416E010E426EF3
:1016F600080E436E95C044F096C045F01EEC10F0FF
:10170600020E0B6E800E0C6E000E0D6E010EF2ECCC
:1017160010F0010E00019D6F000E986F000E976F7E
:101726009DEF0BF0C3509725976F000E9821986F89
:101736009D299D6FC282C2B2A3EF0BF0A5EF0BF0FD
:101746009EEF0BF081EF0AF01DEF00F00A6E0A50D3
:10175600D8B4B0EF0BF0B2EF0BF0D4EF0BF005BE40
:10176600B9EF0BF0B7EF0BF0D4EF0BF002C006F0B9
:1017760003C007F004C008F005C009F0061E071EE6
:10178600081E091E062A000E07220822092206C084
:101796000CF007C00DF008C00EF009C00FF0DCEF2A
:1017A6000BF002C00CF003C00DF004C00EF005C033
:1017B6000FF00250031004100510D8A4E5EF0BF04B
:1017C600E7EF0BF0F1EF0BF0000E026E000E036E6A
:1017D600000E046E000E056E82EF0CF0960E0B6E78
:1017E600FBEF0BF00B2AD8900F320E320D320C3273
:1017F600000E0C14066E000E0D14076E000E0E146D
:10180600086EFE0E0F14096E065007100810091018
:10181600D8A410EF0CF012EF0CF0F5EF0BF020EF60
:101826000CF00B2A010E0C26000E0D220E220F22A2
:10183600D8900F320E320D320C32000E0C14066E9A
:10184600000E0D14076E000E0E14086EFF0E0F1418
:10185600096E0650071008100910D8A435EF0CF0D1
:1018660037EF0CF014EF0CF03FEF0CF00B06D890AE
:101876000C360D360E360F360EBE44EF0CF046EF24
:101886000CF04EEF0CF0020E0B604CEF0CF04EEF2E
:101896000CF039EF0CF00BB053EF0CF055EF0CF0E9
:1018A60056EF0CF00E9ED8900B320BC006F0076A6E
:1018B600086A096A06C009F0086A076A066A0650D5
:1018C6000C1207500D1208500E1209500F120A5032
:1018D600D8B470EF0CF072EF0CF07AEF0CF005BE96
:1018E60079EF0CF077EF0CF07AEF0CF00F8E0CC05E
:1018F60002F00DC003F00EC004F00FC005F0120098
:1019060020BE88EF0CF08BEF0CF0010E8CEF0CF084
:10191600000E296E2950D8B493EF0CF095EF0CF019
:1019260099EF0CF01F6C201ED8B0202A5ABEA0EFEB
:101936000CF09EEF0CF0A6EF0CF0000E246E010EDC
:10194600236EAAEF0CF059C023F05AC024F057C0FA
:1019560025F058C026F02950D8B4B4EF0CF0B6EFF5
:101966000CF0CDEF0CF02506D8A026062950D8A4F9
:10197600BFEF0CF0C1EF0CF0C7EF0CF0000E226EBB
:101986002B0E216ECBEF0CF0000E226E2D0E216E6B
:1019960021C029F0000E286E1F0E276E000E0001D2
:1019A6007F6F06EF0DF02706D8A02806600E2724C5
:1019B600D96E000E2820DA6E1FC002F020C003F098
:1019C600000E056E0A0E046E28EC0FF002C008F039
:1019D60003C009F0D2EC10F00850300FDF6E23067A
:1019E600D8A024062506D8A026061FC002F020C0CF
:1019F60003F0000E056E0A0E046EC6EC0EF002C071
:101A06001FF003C020F028BE11EF0DF0285008E1AA
:101A16002704D8A011EF0DF013EF0DF029EF0DF00C
:101A26001F502010D8A41AEF0DF01CEF0DF0D6EFC2
:101A36000CF024BE29EF0DF0245006E12304D8B0A3
:101A460027EF0DF029EF0DF0D6EF0CF02950D8B4A2
:101A56002FEF0DF031EF0DF03CEF0DF02706D8A07B
:101A66002806600E2724D96E000E2820DA6E29C0BB
:101A7600DFFF1DC012F01EC013F0600E2724146E87
:101A8600000E2820156E25C016F026C017F080EC33
:101A96000FF012002CC0D9FF2DC0DAFFDECFF6FF03
:101AA600DDCFF7FF0800F550250AD8A45DEF0DF04D
:101AB6005FEF0DF0C9EF0DF02CC0D9FF2DC0DAFF96
:101AC600DE2A000EDD22000E586E000E576E57C03D
:101AD6005BF059685A682CC0D9FF2DC0DAFFDECFFB
:101AE60036F0DDCF37F036C0F6FF37C0F7FF080017
:101AF600F550640AD8B482EF0DF084EF0DF092EF42
:101B06000DF036C0F6FF37C0F7FF0800F550690A3A
:101B1600D8A490EF0DF092EF0DF0C0EF0DF02EC0AF
:101B2600D9FF2FC0DAFFDFCF30F0020EDE26DFCF7F
:101B360031F0000EDD2230C0D9FF31C0DAFFDECF32
:101B460032F0DDCF33F0010E3624306E000E372032
:101B5600316E2CC0D9FF2DC0DAFF30C0DEFF31C098
:101B6600DDFF2AC01DF02BC01EF032C01FF033C0AF
:101B760020F083EC0CF0DDEF0DF02CC0D9FF2DC06A
:101B8600DAFFDE2A000EDD22DDEF0DF02CC0D9FFD4
:101B96002DC0DAFFDECFF6FFDDCFF7FF0800F550E8
:101BA600026E036A2AC004F02BC005F061EC0EF049
:101BB600C0EF0DF01200043405340B6E0B50D8A4A0
:101BC600E7EF0DF0E9EF0DF0F3EF0DF0000E026E0A
:101BD600000E036E000E046E000E056E60EF0EF032
:101BE60002C006F003C007F004C008F005C009F003
:101BF600200E03EF0EF0D890093208320732063273
:101C0600E82EFEEF0DF006500A6E048EFF0E021649
:101C1600FF0E0316FF0E0416000E0516960E0B5E3B
:101C26000BBE1AEF0EF018EF0EF030EF0EF00B5061
:101C3600800A970FD8B022EF0EF024EF0EF026EFB1
:101C46000EF0E9EF0DF0D89005320432033202327D
:101C56000B3E26EF0EF048EF0EF01F0E0B6436EF2C
:101C66000EF038EF0EF040EF0EF0E9EF0DF0D890E1
:101C760002360336043605360B060B50D8A446EF5B
:101C86000EF048EF0EF03AEF0EF00A50D8B44EEFD1
:101C96000EF050EF0EF058EF0EF0051E041E031E58
:101CA600026C000E03220422052202C002F003C0C9
:101CB60003F004C004F005C005F01200045005103E
:101CC600D8B468EF0EF06AEF0EF073EF0EF0045022
:101CD6000510D8A471EF0EF073EF0EF078EF0EF04A
:101CE600025088EC11F0C5EF0EF020EE0AF0045019
:101CF600D9260550DA22DE50DE10D8B485EF0EF074
:101D060087EF0EF0A2EF0EF020EE0AF00450D9266F
:101D16000550DA2210EE03F00450E1260550E222C7
:101D2600DE50E65CE650800A0A6EDE50800A0A58EB
:101D3600D8B0A0EF0EF0A2EF0EF0C5EF0EF020EE39
:101D460003F00450D9260550DA22DECF06F0DDCFA7
:101D560007F004C0D9FF05C0DAFFDECF08F0DDCFFB
:101D660009F006500824D96E07500920DA6E02C021
:101D7600DFFF20EE03F00450D9260550DA22DE2AD2
:101D8600000EDD221200000E076E05BECFEF0EF02C
:101D9600CDEF0EF0D5EF0EF0046C051ED8B0052A77
:101DA600010E076E03BEDCEF0EF0DAEF0EF0E2EF87
:101DB6000EF0026C031ED8B0032A010E071A000E9D
:101DC600096E000E086E04500510D8B4EDEF0EF043
:101DD600EFEF0EF017EF0FF0010E066EF7EF0EF0B5
:101DE600D89004360536062A05AEFCEF0EF0FEEF57
:101DF6000EF0F3EF0EF0D890083609360450025C68
:101E060005500358D8A00AEF0FF00CEF0FF011EFB2
:101E16000FF00450025E0550035A0880D890053230
:101E26000432062EFEEF0EF00750D8B41DEF0FF069
:101E36001FEF0FF023EF0FF0086C091ED8B0092A28
:101E460008C002F009C003F01200000E076E03BEC0
:101E560031EF0FF02FEF0FF037EF0FF0026C031E8C
:101E6600D8B0032A010E076E05BE3EEF0FF03CEF19
:101E76000FF042EF0FF0046C051ED8B0052A04508F
:101E86000510D8B449EF0FF04BEF0FF06FEF0FF0DE
:101E9600010E066E53EF0FF0D89004360536062A6B
:101EA60005AE58EF0FF05AEF0FF04FEF0FF004505A
:101EB600025C05500358D8A063EF0FF065EF0FF0F2
:101EC60069EF0FF00450025E0550035AD8900532B0
:101ED6000432062E5AEF0FF00750D8B475EF0FF004
:101EE60077EF0FF07BEF0FF0026C031ED8B0032ADA
:101EF60002C002F003C003F0120017BE85EF0FF018
:101F060087EF0FF08DEF0FF016C01BF017C01CF017
:101F160091EF0FF0000E1C6E000E1B6E000E1A6E77
:101F2600000E196EA3EF0FF0000E036E200E026E68
:101F360012C004F013C005F061EC0EF0194A1A2A1B
:101F46001B50195C1A50800A186E1C50800A1858CB
:101F5600D8A0B0EF0FF0B2EF0FF097EF0FF014C06C
:101F66000BF015C00CF012C00DF013C00EF0B0EC63
:101F760010F01200000E076E000E066E04500510DB
:101F8600D8B4C8EF0FF0CAEF0FF0F2EF0FF0010E62
:101F9600086ED2EF0FF0D89004360536082A05AE43
:101FA600D7EF0FF0D9EF0FF0CEEF0FF0D89006363F
:101FB60007360450025C05500358D8A0E5EF0FF031
:101FC600E7EF0FF0ECEF0FF00450025E0550035AF6
:101FD6000680D89005320432082ED9EF0FF006C0DD
:101FE60002F007C003F012003AC03EF03BC03FF0DB
:101FF6000BEF10F038C02AF039C02BF03E0E2C6ED5
:10200600000E2D6E3CC02EF03DC02FF04DEC0DF0B5
:102016003EC0F6FF3FC0F7FF0800F5500009D8A400
:1020260017EF10F019EF10F0FDEF0FF0000E396EFC
:10203600000E386E1200440E466E000E476E40C00B
:1020460048F041C049F0000E4C6E000E4B6E000E7B
:10205600536E000E526E480E386E000E396E42C038
:102066003AF043C03BF0460E3C6E000E3D6EF7EC78
:102076000FF04B504024D96E4C504120DA6EDF6A87
:102086001200000E056E000E046E5DEF10F0000EDD
:10209600076E000E066E064A072A075009E1A50ECE
:1020A600065CD8A059EF10F05BEF10F04EEF10F081
:1020B600044A052A0250045C03500558D8A066EF6E
:1020C60010F068EF10F04AEF10F012000A0EF66EEC
:1020D600230EF76E000EF86E00EE9EF010EE05F081
:1020E6000900F5CFEEFFE550E150FAE100EE60F0B1
:1020F600200EEE6AE806FDE15B6A5A6A596A586A7A
:10210600576A5C905C92000EF86E080EF76E00013E
:1021160045EF0AF0000E2D1A000E2E1A000E2F1A89
:10212600800E301A29C002F02AC003F02BC004F03A
:102136002CC005F02DC006F02EC007F02FC008F009
:1021460030C009F003EC04F002C029F003C02AF005
:1021560004C02BF005C02CF01200000E116E000E0C
:10216600106EC1EF10F00FC002F0036A0DC004F04C
:102176000EC005F061EC0EF0104A112A10500B2427
:10218600D96E11500C20DA6EDF500F6E0F50D8A4A6
:10219600CFEF10F0D1EF10F0B6EF10F0120009BE3D
:1021A600DFEF10F0095006E10804D8B0DDEF10F0BB
:1021B600DFEF10F0EDEF10F008C00AF009C00BF0E9
:1021C6000A1E0B1E0A4A0B2A0AC008F00BC009F0A9
:1021D600F1EF10F008C008F009C009F012000E6E09
:1021E600020E0E60F9EF10F0FBEF10F004EF11F0A5
:1021F6000B500F0B80090F6E0F506AEC11F00BEFAE
:1022060011F00B500F0BC0090F6E0F506AEC11F056
:102216000CC009F00DC00AF02DEC11F01200948EDE
:10222600948C0350B06E02C0AFFFAB88AB8E08B083
:1022360002D0B89601D0B88604B002D0AC9801D0CE
:10224600AC8806B002D0AC9401D0AC84AC8A9F8A2C
:102256009D8A120038EF11F009C0D9FF0AC0DAFFD3
:10226600DF505CEC11F0094A0A2A09C0D9FF0AC0FE
:10227600DAFFDF50D8A442EF11F044EF11F02FEF50
:1022860011F01200000E036E0F0E026E44EC10F0F9
:10229600000E936E000E956E380E6AEC11F0010E6C
:1022A6006AEC11F00C0E6AEC11F0060E6AEC11F0F5
:1022B6001200086E08C08AFF8C808C8200F08C9217
:1022C600000E036E010E026E44EC10F01200086E52
:1022D60008C08AFF8C908C8200F08C92000E036EF0
:1022E600030E026E44EC10F012000600F29E9EAA47
:1022F6007FEF11F081EF11F082EF11F09E9AF28ECE
:092306005C92110000000041FF8F
:022310001200B9
:020000040020DA
:08000000FFFFFFFFFFFFFFFF00
:020000040030CA
:0E00000000091F1EFF0381FF0FC00FE00F401D
:00000001FF
